{
  "_format": "hh-sol-artifact-1",
  "contractName": "AnonymousScholarshipApplication",
  "sourceName": "contracts/ScholarshipApplication.sol",
  "abi": [
    {
      "anonymous": false,
      "inputs": [
        {
          "indexed": true,
          "internalType": "uint256",
          "name": "applicationId",
          "type": "uint256"
        },
        {
          "indexed": false,
          "internalType": "bool",
          "name": "approved",
          "type": "bool"
        }
      ],
      "name": "ApplicationProcessed",
      "type": "event"
    },
    {
      "anonymous": false,
      "inputs": [
        {
          "indexed": true,
          "internalType": "uint256",
          "name": "applicationId",
          "type": "uint256"
        },
        {
          "indexed": true,
          "internalType": "uint256",
          "name": "programId",
          "type": "uint256"
        },
        {
          "indexed": true,
          "internalType": "address",
          "name": "applicant",
          "type": "address"
        }
      ],
      "name": "ApplicationSubmitted",
      "type": "event"
    },
    {
      "anonymous": false,
      "inputs": [
        {
          "indexed": true,
          "internalType": "uint256",
          "name": "programId",
          "type": "uint256"
        },
        {
          "indexed": false,
          "internalType": "string",
          "name": "name",
          "type": "string"
        },
        {
          "indexed": false,
          "internalType": "address",
          "name": "administrator",
          "type": "address"
        }
      ],
      "name": "ProgramCreated",
      "type": "event"
    },
    {
      "inputs": [
        {
          "internalType": "address",
          "name": "",
          "type": "address"
        },
        {
          "internalType": "uint256",
          "name": "",
          "type": "uint256"
        }
      ],
      "name": "applicantApplications",
      "outputs": [
        {
          "internalType": "uint256",
          "name": "",
          "type": "uint256"
        }
      ],
      "stateMutability": "view",
      "type": "function"
    },
    {
      "inputs": [],
      "name": "applicationCount",
      "outputs": [
        {
          "internalType": "uint256",
          "name": "",
          "type": "uint256"
        }
      ],
      "stateMutability": "view",
      "type": "function"
    },
    {
      "inputs": [
        {
          "internalType": "uint256",
          "name": "",
          "type": "uint256"
        }
      ],
      "name": "applications",
      "outputs": [
        {
          "internalType": "address",
          "name": "applicant",
          "type": "address"
        },
        {
          "internalType": "ebool",
          "name": "hasFinancialNeed",
          "type": "bytes32"
        },
        {
          "internalType": "ebool",
          "name": "meetsAcademicCriteria",
          "type": "bytes32"
        },
        {
          "internalType": "ebool",
          "name": "isEligible",
          "type": "bytes32"
        },
        {
          "internalType": "uint256",
          "name": "timestamp",
          "type": "uint256"
        },
        {
          "internalType": "bool",
          "name": "processed",
          "type": "bool"
        }
      ],
      "stateMutability": "view",
      "type": "function"
    },
    {
      "inputs": [
        {
          "internalType": "string",
          "name": "_name",
          "type": "string"
        },
        {
          "internalType": "string",
          "name": "_description",
          "type": "string"
        },
        {
          "internalType": "uint256",
          "name": "_maxApplications",
          "type": "uint256"
        }
      ],
      "name": "createProgram",
      "outputs": [],
      "stateMutability": "nonpayable",
      "type": "function"
    },
    {
      "inputs": [
        {
          "internalType": "uint256",
          "name": "_applicationId",
          "type": "uint256"
        }
      ],
      "name": "getApplicationBasicInfo",
      "outputs": [
        {
          "internalType": "address",
          "name": "applicant",
          "type": "address"
        },
        {
          "internalType": "uint256",
          "name": "timestamp",
          "type": "uint256"
        },
        {
          "internalType": "bool",
          "name": "processed",
          "type": "bool"
        }
      ],
      "stateMutability": "view",
      "type": "function"
    },
    {
      "inputs": [
        {
          "internalType": "uint256",
          "name": "_applicationId",
          "type": "uint256"
        }
      ],
      "name": "getApplicationEligibility",
      "outputs": [
        {
          "internalType": "ebool",
          "name": "",
          "type": "bytes32"
        }
      ],
      "stateMutability": "view",
      "type": "function"
    },
    {
      "inputs": [
        {
          "internalType": "address",
          "name": "_applicant",
          "type": "address"
        }
      ],
      "name": "getMyApplications",
      "outputs": [
        {
          "internalType": "uint256[]",
          "name": "",
          "type": "uint256[]"
        }
      ],
      "stateMutability": "view",
      "type": "function"
    },
    {
      "inputs": [
        {
          "internalType": "uint256",
          "name": "_programId",
          "type": "uint256"
        }
      ],
      "name": "getProgramApplications",
      "outputs": [
        {
          "internalType": "uint256[]",
          "name": "",
          "type": "uint256[]"
        }
      ],
      "stateMutability": "view",
      "type": "function"
    },
    {
      "inputs": [
        {
          "internalType": "uint256",
          "name": "_programId",
          "type": "uint256"
        }
      ],
      "name": "getProgramInfo",
      "outputs": [
        {
          "internalType": "string",
          "name": "name",
          "type": "string"
        },
        {
          "internalType": "string",
          "name": "description",
          "type": "string"
        },
        {
          "internalType": "uint256",
          "name": "maxApplications",
          "type": "uint256"
        },
        {
          "internalType": "uint256",
          "name": "currentApplications",
          "type": "uint256"
        },
        {
          "internalType": "bool",
          "name": "isActive",
          "type": "bool"
        }
      ],
      "stateMutability": "view",
      "type": "function"
    },
    {
      "inputs": [
        {
          "internalType": "uint256",
          "name": "_applicationId",
          "type": "uint256"
        },
        {
          "internalType": "uint256",
          "name": "_programId",
          "type": "uint256"
        },
        {
          "internalType": "bool",
          "name": "_approved",
          "type": "bool"
        }
      ],
      "name": "processApplication",
      "outputs": [],
      "stateMutability": "nonpayable",
      "type": "function"
    },
    {
      "inputs": [
        {
          "internalType": "uint256",
          "name": "",
          "type": "uint256"
        },
        {
          "internalType": "uint256",
          "name": "",
          "type": "uint256"
        }
      ],
      "name": "programApplications",
      "outputs": [
        {
          "internalType": "uint256",
          "name": "",
          "type": "uint256"
        }
      ],
      "stateMutability": "view",
      "type": "function"
    },
    {
      "inputs": [],
      "name": "programCount",
      "outputs": [
        {
          "internalType": "uint256",
          "name": "",
          "type": "uint256"
        }
      ],
      "stateMutability": "view",
      "type": "function"
    },
    {
      "inputs": [
        {
          "internalType": "uint256",
          "name": "",
          "type": "uint256"
        }
      ],
      "name": "programs",
      "outputs": [
        {
          "internalType": "string",
          "name": "name",
          "type": "string"
        },
        {
          "internalType": "string",
          "name": "description",
          "type": "string"
        },
        {
          "internalType": "uint256",
          "name": "maxApplications",
          "type": "uint256"
        },
        {
          "internalType": "uint256",
          "name": "currentApplications",
          "type": "uint256"
        },
        {
          "internalType": "bool",
          "name": "isActive",
          "type": "bool"
        },
        {
          "internalType": "address",
          "name": "administrator",
          "type": "address"
        }
      ],
      "stateMutability": "view",
      "type": "function"
    },
    {
      "inputs": [
        {
          "internalType": "uint256",
          "name": "_programId",
          "type": "uint256"
        },
        {
          "internalType": "bool",
          "name": "_hasFinancialNeed",
          "type": "bool"
        },
        {
          "internalType": "bool",
          "name": "_meetsAcademicCriteria",
          "type": "bool"
        }
      ],
      "name": "submitApplication",
      "outputs": [],
      "stateMutability": "nonpayable",
      "type": "function"
    },
    {
      "inputs": [
        {
          "internalType": "uint256",
          "name": "_programId",
          "type": "uint256"
        }
      ],
      "name": "toggleProgramStatus",
      "outputs": [],
      "stateMutability": "nonpayable",
      "type": "function"
    }
  ],
  "bytecode": "0x608060405234801561001057600080fd5b50611685806100206000396000f3fe608060405234801561001057600080fd5b50600436106100f55760003560e01c80637a3de90d11610097578063aa635c4e11610066578063aa635c4e14610297578063d7166f01146102aa578063dfefadff146102bd578063e2aad4a01461034857600080fd5b80637a3de90d146102435780637d5cae031461025657806392db2816146102695780639f7966341461028e57600080fd5b80634b5a726d116100d35780634b5a726d146101d85780634ce258a8146101fc5780635d4111a71461020f57806378823eb71461023057600080fd5b80630c1067b0146100fa5780631ee91d2214610123578063340f9c5c14610138575b600080fd5b61010d61010836600461113c565b610351565b60405161011a9190611157565b60405180910390f35b6101366101313660046111ab565b6103bd565b005b6101b16101463660046111e7565b600090815260026020818152604092839020835160c08101855281546001600160a01b031680825260018301549382019390935292810154938301939093526003830154606083015260048301546080830181905260059093015460ff16151560a090920182905292565b604080516001600160a01b039094168452602084019290925215159082015260600161011a565b6101eb6101e63660046111e7565b61064d565b60405161011a959493929190611246565b61013661020a36600461128b565b610804565b61022261021d3660046112b7565b610936565b60405190815260200161011a565b61013661023e3660046111e7565b610967565b61010d6102513660046111e7565b6109fb565b6102226102643660046112e1565b610aca565b61027c6102773660046111e7565b610ae6565b60405161011a96959493929190611303565b61022260015481565b6101366102a53660046113fa565b610c39565b6102226102b83660046111e7565b610d7d565b61030f6102cb3660046111e7565b60026020819052600091825260409091208054600182015492820154600383015460048401546005909401546001600160a01b039093169493919290919060ff1686565b604080516001600160a01b03909716875260208701959095529385019290925260608401526080830152151560a082015260c00161011a565b61022260005481565b6001600160a01b0381166000908152600460209081526040918290208054835181840281018401909452808452606093928301828280156103b157602002820191906000526020600020905b81548152602001906001019080831161039d575b50505050509050919050565b60008381526003602052604090206004015460ff166104235760405162461bcd60e51b815260206004820152601260248201527f50726f6772616d206e6f7420616374697665000000000000000000000000000060448201526064015b60405180910390fd5b60008381526003602081905260409091206002810154910154106104895760405162461bcd60e51b815260206004820152600c60248201527f50726f6772616d2066756c6c0000000000000000000000000000000000000000604482015260640161041a565b600061049483610e03565b905060006104a183610e03565b905060006104af8383610e27565b60008054919250806104c083611467565b90915550506040805160c0810182523381526020808201868152828401868152606084018681524260808601908152600060a0870181815281548252600296879052979020955186547fffffffffffffffffffffffff0000000000000000000000000000000000000000166001600160a01b03909116178655925160018601559051928401929092559051600383015551600482015590516005909101805460ff191691151591909117905561057583610e60565b5061057f82610e60565b5061058981610e60565b506000868152600360205260409020600401546105b590829061010090046001600160a01b0316610e70565b5033600090815260046020908152604080832083548154600181810184559286528486200155898452600583528184208454815492830182559085528385209091015588835260039182905282200180549161061083611467565b90915550506000805460405133928992917ffdb73f695bc6f43d03128339b6d99121833f5cb8d65f8cb3ffc6abe2e08a0a5b9190a4505050505050565b606080600080600080600360008881526020019081526020016000206040518060c00160405290816000820180546106849061148e565b80601f01602080910402602001604051908101604052809291908181526020018280546106b09061148e565b80156106fd5780601f106106d2576101008083540402835291602001916106fd565b820191906000526020600020905b8154815290600101906020018083116106e057829003601f168201915b505050505081526020016001820180546107169061148e565b80601f01602080910402602001604051908101604052809291908181526020018280546107429061148e565b801561078f5780601f106107645761010080835404028352916020019161078f565b820191906000526020600020905b81548152906001019060200180831161077257829003601f168201915b50505091835250506002820154602080830191909152600383015460408084019190915260049093015460ff811615156060808501919091526101009091046001600160a01b031660809384015284519185015193850151908501519490920151909b929a5090985091965090945092505050565b600082815260036020526040902060040154829061010090046001600160a01b031633146108745760405162461bcd60e51b815260206004820152601960248201527f4e6f742070726f6772616d2061646d696e6973747261746f7200000000000000604482015260640161041a565b60008481526002602052604090206005015460ff16156108d65760405162461bcd60e51b815260206004820152601160248201527f416c72656164792070726f636573736564000000000000000000000000000000604482015260640161041a565b60008481526002602052604090819020600501805460ff191660011790555184907fc1439544bbe16b66ecdd79d975bbfc413cb919cd486d59d35af83aae496db2459061092890851515815260200190565b60405180910390a250505050565b6004602052816000526040600020818154811061095257600080fd5b90600052602060002001600091509150505481565b600081815260036020526040902060040154819061010090046001600160a01b031633146109d75760405162461bcd60e51b815260206004820152601960248201527f4e6f742070726f6772616d2061646d696e6973747261746f7200000000000000604482015260640161041a565b506000908152600360205260409020600401805460ff19811660ff90911615179055565b60008181526003602052604090206004015460609061010090046001600160a01b03163314610a6c5760405162461bcd60e51b815260206004820152600e60248201527f4e6f7420617574686f72697a6564000000000000000000000000000000000000604482015260640161041a565b600082815260056020908152604091829020805483518184028101840190945280845290918301828280156103b1576020028201919060005260206000209081548152602001906001019080831161039d5750505050509050919050565b6005602052816000526040600020818154811061095257600080fd5b600360205260009081526040902080548190610b019061148e565b80601f0160208091040260200160405190810160405280929190818152602001828054610b2d9061148e565b8015610b7a5780601f10610b4f57610100808354040283529160200191610b7a565b820191906000526020600020905b815481529060010190602001808311610b5d57829003601f168201915b505050505090806001018054610b8f9061148e565b80601f0160208091040260200160405190810160405280929190818152602001828054610bbb9061148e565b8015610c085780601f10610bdd57610100808354040283529160200191610c08565b820191906000526020600020905b815481529060010190602001808311610beb57829003601f168201915b50505050600283015460038401546004909401549293909290915060ff81169061010090046001600160a01b031686565b60018054906000610c4983611467565b90915550506040805160c08101825284815260208082018590528183018490526000606083018190526001608084018190523360a085015254815260039091529190912081518190610c9b9082611519565b5060208201516001820190610cb09082611519565b5060408281015160028301556060830151600383015560808301516004909201805460a0909401516001600160a01b0316610100027fffffffffffffffffffffff0000000000000000000000000000000000000000ff931515939093167fffffffffffffffffffffff000000000000000000000000000000000000000000909416939093179190911790915560015490517f617d7e612ecd9382b4ba93623bd4d02e40fd0d67d7ba34064fcb0cd90030f50990610d7090869033906115d9565b60405180910390a2505050565b6000818152600260205260408120546001600160a01b0316331480610da157503330145b610ded5760405162461bcd60e51b815260206004820152600e60248201527f4e6f7420617574686f72697a6564000000000000000000000000000000000000604482015260640161041a565b5060009081526002602052604090206003015490565b6000610e2182610e14576000610e17565b60015b60ff166000610e83565b92915050565b600082610e3b57610e386000610e03565b92505b81610e4d57610e4a6000610e03565b91505b610e5983836000610f5d565b9392505050565b6000610e6c8230611078565b5090565b6000610e7c8383611078565b5090919050565b7f9e7b61f58c47dc699ac88507c4f5bb9f121c03808c5676a8078fe583e4649701546040517f9cd07acb0000000000000000000000000000000000000000000000000000000081526000917f9e7b61f58c47dc699ac88507c4f5bb9f121c03808c5676a8078fe583e4649700916001600160a01b0390911690639cd07acb90610f129087908790600401611604565b6020604051808303816000875af1158015610f31573d6000803e3d6000fd5b505050506040513d601f19601f82011682018060405250810190610f559190611636565b949350505050565b6000808215610f8d57507f0100000000000000000000000000000000000000000000000000000000000000610f91565b5060005b60007f9e7b61f58c47dc699ac88507c4f5bb9f121c03808c5676a8078fe583e464970060018101546040517fd99882d500000000000000000000000000000000000000000000000000000000815260048101899052602481018890527fff00000000000000000000000000000000000000000000000000000000000000851660448201529192506001600160a01b03169063d99882d5906064016020604051808303816000875af115801561104a573d6000803e3d6000fd5b505050506040513d601f19601f8201168201806040525081019061106e9190611636565b9695505050505050565b60007f9e7b61f58c47dc699ac88507c4f5bb9f121c03808c5676a8078fe583e464970080546040517fb9496b62000000000000000000000000000000000000000000000000000000008152600481018690526001600160a01b03858116602483015292935091169063b9496b6290604401600060405180830381600087803b15801561110357600080fd5b505af1158015611117573d6000803e3d6000fd5b50505050505050565b80356001600160a01b038116811461113757600080fd5b919050565b60006020828403121561114e57600080fd5b610e5982611120565b6020808252825182820181905260009190848201906040850190845b8181101561118f57835183529284019291840191600101611173565b50909695505050505050565b8035801515811461113757600080fd5b6000806000606084860312156111c057600080fd5b833592506111d06020850161119b565b91506111de6040850161119b565b90509250925092565b6000602082840312156111f957600080fd5b5035919050565b6000815180845260005b818110156112265760208185018101518683018201520161120a565b506000602082860101526020601f19601f83011685010191505092915050565b60a08152600061125960a0830188611200565b828103602084015261126b8188611200565b604084019690965250506060810192909252151560809091015292915050565b6000806000606084860312156112a057600080fd5b83359250602084013591506111de6040850161119b565b600080604083850312156112ca57600080fd5b6112d383611120565b946020939093013593505050565b600080604083850312156112f457600080fd5b50508035926020909101359150565b60c08152600061131660c0830189611200565b82810360208401526113288189611200565b60408401979097525050606081019390935290151560808301526001600160a01b031660a09091015292915050565b634e487b7160e01b600052604160045260246000fd5b600082601f83011261137e57600080fd5b813567ffffffffffffffff8082111561139957611399611357565b604051601f8301601f19908116603f011681019082821181831017156113c1576113c1611357565b816040528381528660208588010111156113da57600080fd5b836020870160208301376000602085830101528094505050505092915050565b60008060006060848603121561140f57600080fd5b833567ffffffffffffffff8082111561142757600080fd5b6114338783880161136d565b9450602086013591508082111561144957600080fd5b506114568682870161136d565b925050604084013590509250925092565b60006001820161148757634e487b7160e01b600052601160045260246000fd5b5060010190565b600181811c908216806114a257607f821691505b6020821081036114c257634e487b7160e01b600052602260045260246000fd5b50919050565b601f821115611514576000816000526020600020601f850160051c810160208610156114f15750805b601f850160051c820191505b81811015611510578281556001016114fd565b5050505b505050565b815167ffffffffffffffff81111561153357611533611357565b61154781611541845461148e565b846114c8565b602080601f83116001811461157c57600084156115645750858301515b600019600386901b1c1916600185901b178555611510565b600085815260208120601f198616915b828110156115ab5788860151825594840194600190910190840161158c565b50858210156115c95787850151600019600388901b60f8161c191681555b5050505050600190811b01905550565b6040815260006115ec6040830185611200565b90506001600160a01b03831660208301529392505050565b828152604081016054831061162957634e487b7160e01b600052602160045260246000fd5b8260208301529392505050565b60006020828403121561164857600080fd5b505191905056fea2646970667358221220b3eed1656e45a0bf7b2cffdda5179e704f8adec9b9206e45acdcd2661675341864736f6c63430008180033",
  "linkReferences": {},
  "deployedLinkReferences": {}
}